{
    "contractName": "CryptoZombies",
    "abi": [
        {
            "anonymous": false,
            "inputs": [
                {
                    "indexed": true,
                    "internalType": "address",
                    "name": "_owner",
                    "type": "address"
                },
                {
                    "indexed": true,
                    "internalType": "address",
                    "name": "_approved",
                    "type": "address"
                },
                {
                    "indexed": true,
                    "internalType": "uint256",
                    "name": "_tokenId",
                    "type": "uint256"
                }
            ],
            "name": "Approval",
            "type": "event"
        },
        {
            "anonymous": false,
            "inputs": [
                {
                    "indexed": false,
                    "internalType": "uint256",
                    "name": "zombieId",
                    "type": "uint256"
                },
                {
                    "indexed": false,
                    "internalType": "string",
                    "name": "name",
                    "type": "string"
                },
                {
                    "indexed": false,
                    "internalType": "uint256",
                    "name": "dna",
                    "type": "uint256"
                }
            ],
            "name": "NewZombie",
            "type": "event"
        },
        {
            "anonymous": false,
            "inputs": [
                {
                    "indexed": true,
                    "internalType": "address",
                    "name": "previousOwner",
                    "type": "address"
                },
                {
                    "indexed": true,
                    "internalType": "address",
                    "name": "newOwner",
                    "type": "address"
                }
            ],
            "name": "OwnershipTransferred",
            "type": "event"
        },
        {
            "anonymous": false,
            "inputs": [
                {
                    "indexed": true,
                    "internalType": "address",
                    "name": "_from",
                    "type": "address"
                },
                {
                    "indexed": true,
                    "internalType": "address",
                    "name": "_to",
                    "type": "address"
                },
                {
                    "indexed": true,
                    "internalType": "uint256",
                    "name": "_tokenId",
                    "type": "uint256"
                }
            ],
            "name": "Transfer",
            "type": "event"
        },
        {
            "inputs": [
                {
                    "internalType": "address",
                    "name": "_approved",
                    "type": "address"
                },
                {
                    "internalType": "uint256",
                    "name": "_tokenId",
                    "type": "uint256"
                }
            ],
            "name": "approve",
            "outputs": [],
            "stateMutability": "payable",
            "type": "function"
        },
        {
            "inputs": [
                {
                    "internalType": "uint256",
                    "name": "_zombieId",
                    "type": "uint256"
                },
                {
                    "internalType": "uint256",
                    "name": "_targetId",
                    "type": "uint256"
                }
            ],
            "name": "attack",
            "outputs": [],
            "stateMutability": "nonpayable",
            "type": "function"
        },
        {
            "inputs": [
                {
                    "internalType": "address",
                    "name": "_owner",
                    "type": "address"
                }
            ],
            "name": "balanceOf",
            "outputs": [
                {
                    "internalType": "uint256",
                    "name": "",
                    "type": "uint256"
                }
            ],
            "stateMutability": "view",
            "type": "function"
        },
        {
            "inputs": [
                {
                    "internalType": "uint256",
                    "name": "_zombieId",
                    "type": "uint256"
                },
                {
                    "internalType": "uint256",
                    "name": "_newDna",
                    "type": "uint256"
                }
            ],
            "name": "changeDna",
            "outputs": [],
            "stateMutability": "nonpayable",
            "type": "function"
        },
        {
            "inputs": [
                {
                    "internalType": "uint256",
                    "name": "_zombieId",
                    "type": "uint256"
                },
                {
                    "internalType": "string",
                    "name": "_newName",
                    "type": "string"
                }
            ],
            "name": "changeName",
            "outputs": [],
            "stateMutability": "nonpayable",
            "type": "function"
        },
        {
            "inputs": [
                {
                    "internalType": "string",
                    "name": "_name",
                    "type": "string"
                }
            ],
            "name": "createRandomZombie",
            "outputs": [],
            "stateMutability": "nonpayable",
            "type": "function"
        },
        {
            "inputs": [
                {
                    "internalType": "address",
                    "name": "_owner",
                    "type": "address"
                }
            ],
            "name": "getZombiesByOwner",
            "outputs": [
                {
                    "internalType": "uint256[]",
                    "name": "",
                    "type": "uint256[]"
                }
            ],
            "stateMutability": "view",
            "type": "function"
        },
        {
            "inputs": [],
            "name": "isOwner",
            "outputs": [
                {
                    "internalType": "bool",
                    "name": "",
                    "type": "bool"
                }
            ],
            "stateMutability": "view",
            "type": "function"
        },
        {
            "inputs": [
                {
                    "internalType": "uint256",
                    "name": "_zombieId",
                    "type": "uint256"
                }
            ],
            "name": "levelUp",
            "outputs": [],
            "stateMutability": "payable",
            "type": "function"
        },
        {
            "inputs": [],
            "name": "owner",
            "outputs": [
                {
                    "internalType": "address",
                    "name": "",
                    "type": "address"
                }
            ],
            "stateMutability": "view",
            "type": "function"
        },
        {
            "inputs": [
                {
                    "internalType": "uint256",
                    "name": "_tokenId",
                    "type": "uint256"
                }
            ],
            "name": "ownerOf",
            "outputs": [
                {
                    "internalType": "address",
                    "name": "",
                    "type": "address"
                }
            ],
            "stateMutability": "view",
            "type": "function"
        },
        {
            "inputs": [],
            "name": "renounceOwnership",
            "outputs": [],
            "stateMutability": "nonpayable",
            "type": "function"
        },
        {
            "inputs": [
                {
                    "internalType": "uint256",
                    "name": "_fee",
                    "type": "uint256"
                }
            ],
            "name": "setLevelUpFee",
            "outputs": [],
            "stateMutability": "nonpayable",
            "type": "function"
        },
        {
            "inputs": [
                {
                    "internalType": "address",
                    "name": "_from",
                    "type": "address"
                },
                {
                    "internalType": "address",
                    "name": "_to",
                    "type": "address"
                },
                {
                    "internalType": "uint256",
                    "name": "_tokenId",
                    "type": "uint256"
                }
            ],
            "name": "transferFrom",
            "outputs": [],
            "stateMutability": "payable",
            "type": "function"
        },
        {
            "inputs": [
                {
                    "internalType": "address",
                    "name": "newOwner",
                    "type": "address"
                }
            ],
            "name": "transferOwnership",
            "outputs": [],
            "stateMutability": "nonpayable",
            "type": "function"
        },
        {
            "inputs": [],
            "name": "withdraw",
            "outputs": [],
            "stateMutability": "nonpayable",
            "type": "function"
        },
        {
            "inputs": [
                {
                    "internalType": "uint256",
                    "name": "",
                    "type": "uint256"
                }
            ],
            "name": "zombieToOwner",
            "outputs": [
                {
                    "internalType": "address",
                    "name": "",
                    "type": "address"
                }
            ],
            "stateMutability": "view",
            "type": "function"
        },
        {
            "inputs": [
                {
                    "internalType": "uint256",
                    "name": "",
                    "type": "uint256"
                }
            ],
            "name": "zombies",
            "outputs": [
                {
                    "internalType": "string",
                    "name": "name",
                    "type": "string"
                },
                {
                    "internalType": "uint256",
                    "name": "dna",
                    "type": "uint256"
                },
                {
                    "internalType": "uint32",
                    "name": "level",
                    "type": "uint32"
                },
                {
                    "internalType": "uint32",
                    "name": "readyTime",
                    "type": "uint32"
                },
                {
                    "internalType": "uint16",
                    "name": "winCount",
                    "type": "uint16"
                },
                {
                    "internalType": "uint16",
                    "name": "lossCount",
                    "type": "uint16"
                }
            ],
            "stateMutability": "view",
            "type": "function"
        }
    ],
    "bytecode": "6080604052601060018190556200001890600a620000d3565b6002556201518060035566038d7ea4c68000600755600060085560466009553480156200004457600080fd5b50600080546001600160a01b0319163390811782556040519091907f8be0079c531659141344cd1fd0a4f28419497f9722a3daafe3b4186f6b6457e0908290a3620001b4565b600181815b80851115620000cb578160001904821115620000af57620000af6200019e565b80851615620000bd57918102915b93841c93908002906200008f565b509250929050565b6000620000e18383620000e8565b9392505050565b600082620000f95750600162000198565b81620001085750600062000198565b81600181146200012157600281146200012c576200014c565b600191505062000198565b60ff8411156200014057620001406200019e565b50506001821b62000198565b5060208310610133831016604e8410600b841016171562000171575081810a62000198565b6200017d83836200008a565b80600019048211156200019457620001946200019e565b0290505b92915050565b634e487b7160e01b600052601160045260246000fd5b61156e80620001c46000396000f3fe6080604052600436106101095760003560e01c806370a08231116100955780638f32d59b116100645780638f32d59b14610301578063c39cbef11461032c578063ccf670f81461034c578063e1fa76381461036c578063f2fde38b1461038c57600080fd5b806370a082311461026a578063715018a6146102ae5780637bff0a01146102c35780638da5cb5b146102e357600080fd5b80633ccfd60b116100dc5780633ccfd60b146101845780634412e10414610199578063528b7b8f146101c65780635faf2880146102145780636352211e1461023457600080fd5b8063095ea7b31461010e5780630ce90ec2146101235780632052465e1461013657806323b872dd14610171575b600080fd5b61012161011c36600461111e565b6103ac565b005b6101216101313660046111f9565b61042b565b34801561014257600080fd5b506101566101513660046111f9565b610492565b6040516101689695949392919061133c565b60405180910390f35b61012161017f3660046110e2565b61057c565b34801561019057600080fd5b506101216105d0565b3480156101a557600080fd5b506101b96101b43660046110c7565b610630565b60405161016891906112f8565b3480156101d257600080fd5b506101fc6101e13660046111f9565b6005602052600090815260409020546001600160a01b031681565b6040516001600160a01b039091168152602001610168565b34801561022057600080fd5b5061012161022f36600461128e565b610708565b34801561024057600080fd5b506101fc61024f3660046111f9565b6000908152600560205260409020546001600160a01b031690565b34801561027657600080fd5b506102a06102853660046110c7565b6001600160a01b031660009081526006602052604090205490565b604051908152602001610168565b3480156102ba57600080fd5b50610121610799565b3480156102cf57600080fd5b506101216102de366004611148565b6107fa565b3480156102ef57600080fd5b506000546001600160a01b03166101fc565b34801561030d57600080fd5b506000546001600160a01b031633146040519015158152602001610168565b34801561033857600080fd5b50610121610347366004611212565b61082b565b34801561035857600080fd5b506101216103673660046111f9565b6108c4565b34801561037857600080fd5b5061012161038736600461128e565b6108e0565b34801561039857600080fd5b506101216103a73660046110c7565b610aca565b60008181526005602052604090205481906001600160a01b031633146103d157600080fd5b6000828152600a602052604080822080546001600160a01b0319166001600160a01b0387169081179091559051849233917f8c5be1e5ebec7d5bd14f71427d1e84f3dd0314c0f7b2291e5b200ac8c7c3b9259190a4505050565b600754341461043957600080fd5b6004818154811061044c5761044c61150c565b600091825260208220600260039092020101805463ffffffff1691610470836114b2565b91906101000a81548163ffffffff021916908363ffffffff1602179055505050565b600481815481106104a257600080fd5b90600052602060002090600302016000915090508060000180546104c59061143a565b80601f01602080910402602001604051908101604052809291908181526020018280546104f19061143a565b801561053e5780601f106105135761010080835404028352916020019161053e565b820191906000526020600020905b81548152906001019060200180831161052157829003601f168201915b505050600184015460029094015492939263ffffffff8082169350640100000000820416915061ffff600160401b8204811691600160501b90041686565b6000818152600560205260409020546001600160a01b03163314806105b757506000818152600a60205260409020546001600160a01b031633145b6105c057600080fd5b6105cb838383610aed565b505050565b6000546001600160a01b031633146105e757600080fd5b600080546001600160a01b03166040519091506001600160a01b038216904780156108fc02916000818181858888f1935050505015801561062c573d6000803e3d6000fd5b5050565b6001600160a01b0381166000908152600660205260408120546060919067ffffffffffffffff81111561066557610665611522565b60405190808252806020026020018201604052801561068e578160200160208202803683370190505b5090506000805b6004548110156106ff576000818152600560205260409020546001600160a01b03868116911614156106ed57808383815181106106d4576106d461150c565b6020908102919091010152816106e981611497565b9250505b806106f781611497565b915050610695565b50909392505050565b601482816004828154811061071f5761071f61150c565b600091825260209091206002600390920201015463ffffffff16101561074457600080fd5b60008481526005602052604090205484906001600160a01b0316331461076957600080fd5b836004868154811061077d5761077d61150c565b9060005260206000209060030201600101819055505050505050565b6000546001600160a01b031633146107b057600080fd5b600080546040516001600160a01b03909116907f8be0079c531659141344cd1fd0a4f28419497f9722a3daafe3b4186f6b6457e0908390a3600080546001600160a01b0319169055565b336000908152600660205260409020541561081457600080fd5b600061081f82610b92565b905061062c8282610bd6565b60028381600482815481106108425761084261150c565b600091825260209091206002600390920201015463ffffffff16101561086757600080fd5b60008581526005602052604090205485906001600160a01b0316331461088c57600080fd5b8484600488815481106108a1576108a161150c565b600091825260209091206108bb9360039092020191610f9e565b50505050505050565b6000546001600160a01b031633146108db57600080fd5b600755565b60008281526005602052604090205482906001600160a01b0316331461090557600080fd5b60006004848154811061091a5761091a61150c565b9060005260206000209060030201905060006004848154811061093f5761093f61150c565b90600052602060002090600302019050600061095b6064610d69565b90506009548111610a4457600283018054600160401b900461ffff1690600861098383611475565b825461ffff9182166101009390930a92830291909202199091161790555060028301805463ffffffff169060006109b9836114b2565b825463ffffffff9182166101009390930a92830291909202199091161790555060028201805461ffff600160501b9091041690600a6109f783611475565b91906101000a81548161ffff021916908361ffff16021790555050610a3f868360010154604051806040016040528060068152602001657a6f6d62696560d01b815250610ddc565b610ac2565b600283018054600160501b900461ffff1690600a610a6183611475565b91906101000a81548161ffff021916908361ffff1602179055505081600201600881819054906101000a900461ffff1680929190610a9e90611475565b91906101000a81548161ffff021916908361ffff16021790555050610ac283610efe565b505050505050565b6000546001600160a01b03163314610ae157600080fd5b610aea81610f30565b50565b6001600160a01b0382166000908152600660205260408120805491610b1183611497565b9091555050336000908152600660205260408120805491610b3183611423565b909155505060008181526005602052604080822080546001600160a01b0319166001600160a01b0386811691821790925591518493918716917fddf252ad1be2c89b69c2b068fc378daa952ba7f163c4a11628f55a4df523b3ef91a4505050565b60008082604051602001610ba691906112dc565b6040516020818303038152906040528051906020012060001c905060025481610bcf91906114cc565b9392505050565b60046040518060c00160405280848152602001838152602001600163ffffffff16815260200160035442610c0a91906113b0565b63ffffffff168152600060208083018290526040909201819052835460018101855593815281902082518051939460030290910192610c4c9284920190611022565b5060208201516001808301919091556040830151600290920180546060850151608086015160a09096015161ffff908116600160501b0261ffff60501b1991909716600160401b02166bffffffff00000000000000001963ffffffff9283166401000000000267ffffffffffffffff199094169290961691909117919091179390931692909217929092179055600454600091610ce8916113dc565b600081815260056020908152604080832080546001600160a01b03191633908117909155835260069091528120805492935090610d2483611497565b91905055507f88f026aacbbecc90c18411df4b1185fd8d9be2470f1962f192bf84a27d0704b7818484604051610d5c93929190611387565b60405180910390a1505050565b6008805460009182610d7a83611497565b9091555050600854604080514260208201526bffffffffffffffffffffffff193360601b1691810191909152605481019190915282906074016040516020818303038152906040528051906020012060001c610dd691906114cc565b92915050565b60008381526005602052604090205483906001600160a01b03163314610e0157600080fd5b600060048581548110610e1657610e1661150c565b9060005260206000209060030201905060025484610e3491906114cc565b935060006002858360010154610e4a91906113b0565b610e5491906113c8565b604051646b6974747960d81b60208201529091506025016040516020818303038152906040528051906020012084604051602001610e9291906112dc565b604051602081830303815290604052805190602001201415610ed157610eb96064826114cc565b610ec390826113dc565b610ece9060636113b0565b90505b610ef9604051806040016040528060068152602001654e6f4e616d6560d01b81525082610bd6565b610ac2825b600354610f0b90426113b0565b8160020160046101000a81548163ffffffff021916908363ffffffff16021790555050565b6001600160a01b038116610f4357600080fd5b600080546040516001600160a01b03808516939216917f8be0079c531659141344cd1fd0a4f28419497f9722a3daafe3b4186f6b6457e091a3600080546001600160a01b0319166001600160a01b0392909216919091179055565b828054610faa9061143a565b90600052602060002090601f016020900481019282610fcc5760008555611012565b82601f10610fe55782800160ff19823516178555611012565b82800160010185558215611012579182015b82811115611012578235825591602001919060010190610ff7565b5061101e929150611096565b5090565b82805461102e9061143a565b90600052602060002090601f0160209004810192826110505760008555611012565b82601f1061106957805160ff1916838001178555611012565b82800160010185558215611012579182015b8281111561101257825182559160200191906001019061107b565b5b8082111561101e5760008155600101611097565b80356001600160a01b03811681146110c257600080fd5b919050565b6000602082840312156110d957600080fd5b610bcf826110ab565b6000806000606084860312156110f757600080fd5b611100846110ab565b925061110e602085016110ab565b9150604084013590509250925092565b6000806040838503121561113157600080fd5b61113a836110ab565b946020939093013593505050565b60006020828403121561115a57600080fd5b813567ffffffffffffffff8082111561117257600080fd5b818401915084601f83011261118657600080fd5b81358181111561119857611198611522565b604051601f8201601f19908116603f011681019083821181831017156111c0576111c0611522565b816040528281528760208487010111156111d957600080fd5b826020860160208301376000928101602001929092525095945050505050565b60006020828403121561120b57600080fd5b5035919050565b60008060006040848603121561122757600080fd5b83359250602084013567ffffffffffffffff8082111561124657600080fd5b818601915086601f83011261125a57600080fd5b81358181111561126957600080fd5b87602082850101111561127b57600080fd5b6020830194508093505050509250925092565b600080604083850312156112a157600080fd5b50508035926020909101359150565b600081518084526112c88160208601602086016113f3565b601f01601f19169290920160200192915050565b600082516112ee8184602087016113f3565b9190910192915050565b6020808252825182820181905260009190848201906040850190845b8181101561133057835183529284019291840191600101611314565b50909695505050505050565b60c08152600061134f60c08301896112b0565b60208301979097525063ffffffff948516604082015292909316606083015261ffff908116608083015290911660a090910152919050565b8381526060602082015260006113a060608301856112b0565b9050826040830152949350505050565b600082198211156113c3576113c36114e0565b500190565b6000826113d7576113d76114f6565b500490565b6000828210156113ee576113ee6114e0565b500390565b60005b8381101561140e5781810151838201526020016113f6565b8381111561141d576000848401525b50505050565b600081611432576114326114e0565b506000190190565b600181811c9082168061144e57607f821691505b6020821081141561146f57634e487b7160e01b600052602260045260246000fd5b50919050565b600061ffff8083168181141561148d5761148d6114e0565b6001019392505050565b60006000198214156114ab576114ab6114e0565b5060010190565b600063ffffffff8083168181141561148d5761148d6114e0565b6000826114db576114db6114f6565b500690565b634e487b7160e01b600052601160045260246000fd5b634e487b7160e01b600052601260045260246000fd5b634e487b7160e01b600052603260045260246000fd5b634e487b7160e01b600052604160045260246000fdfea2646970667358221220c01e1b2f89bf8d282d1cfd1930a27cbb8379c3af5bde5d53367aa6cb6f3f45e464736f6c63430008060033",
    "sourcePath": "/Users/sandrarawat/cryptozombie-lesson1/contracts/CryptoZombies.sol",
    "compiler": {
        "name": "solc",
        "version": "0.8.6+commit.11564f7e"
    },
    "functionHashes": {
        "approve(address,uint256)": "095ea7b3",
        "attack(uint256,uint256)": "e1fa7638",
        "balanceOf(address)": "70a08231",
        "changeDna(uint256,uint256)": "5faf2880",
        "changeName(uint256,string)": "c39cbef1",
        "createRandomZombie(string)": "7bff0a01",
        "getZombiesByOwner(address)": "4412e104",
        "isOwner()": "8f32d59b",
        "levelUp(uint256)": "0ce90ec2",
        "owner()": "8da5cb5b",
        "ownerOf(uint256)": "6352211e",
        "renounceOwnership()": "715018a6",
        "setLevelUpFee(uint256)": "ccf670f8",
        "transferFrom(address,address,uint256)": "23b872dd",
        "transferOwnership(address)": "f2fde38b",
        "withdraw()": "3ccfd60b",
        "zombieToOwner(uint256)": "528b7b8f",
        "zombies(uint256)": "2052465e"
    },
    "gasEstimates": {
        "creation": {
            "codeDepositCost": "1097200",
            "executionCost": "142783",
            "totalCost": "1239983"
        },
        "external": {
            "approve(address,uint256)": "28774",
            "attack(uint256,uint256)": "infinite",
            "balanceOf(address)": "2560",
            "changeDna(uint256,uint256)": "31210",
            "changeName(uint256,string)": "infinite",
            "createRandomZombie(string)": "infinite",
            "getZombiesByOwner(address)": "infinite",
            "isOwner()": "2331",
            "levelUp(uint256)": "31037",
            "owner()": "2420",
            "ownerOf(uint256)": "2588",
            "renounceOwnership()": "30210",
            "setLevelUpFee(uint256)": "24530",
            "transferFrom(address,address,uint256)": "infinite",
            "transferOwnership(address)": "30539",
            "withdraw()": "infinite",
            "zombieToOwner(uint256)": "2544",
            "zombies(uint256)": "infinite"
        }
    }
}