{
  "contractName": "CryptoZombies",
  "abi": [
    {
      "anonymous": false,
      "inputs": [
        {
          "indexed": true,
          "internalType": "address",
          "name": "_owner",
          "type": "address"
        },
        {
          "indexed": true,
          "internalType": "address",
          "name": "_approved",
          "type": "address"
        },
        {
          "indexed": true,
          "internalType": "uint256",
          "name": "_tokenId",
          "type": "uint256"
        }
      ],
      "name": "Approval",
      "type": "event"
    },
    {
      "anonymous": false,
      "inputs": [
        {
          "indexed": false,
          "internalType": "uint256",
          "name": "zombieId",
          "type": "uint256"
        },
        {
          "indexed": false,
          "internalType": "string",
          "name": "name",
          "type": "string"
        },
        {
          "indexed": false,
          "internalType": "uint256",
          "name": "dna",
          "type": "uint256"
        }
      ],
      "name": "NewZombie",
      "type": "event"
    },
    {
      "anonymous": false,
      "inputs": [
        {
          "indexed": true,
          "internalType": "address",
          "name": "previousOwner",
          "type": "address"
        },
        {
          "indexed": true,
          "internalType": "address",
          "name": "newOwner",
          "type": "address"
        }
      ],
      "name": "OwnershipTransferred",
      "type": "event"
    },
    {
      "anonymous": false,
      "inputs": [
        {
          "indexed": true,
          "internalType": "address",
          "name": "_from",
          "type": "address"
        },
        {
          "indexed": true,
          "internalType": "address",
          "name": "_to",
          "type": "address"
        },
        {
          "indexed": true,
          "internalType": "uint256",
          "name": "_tokenId",
          "type": "uint256"
        }
      ],
      "name": "Transfer",
      "type": "event"
    },
    {
      "inputs": [
        {
          "internalType": "address",
          "name": "_approved",
          "type": "address"
        },
        {
          "internalType": "uint256",
          "name": "_tokenId",
          "type": "uint256"
        }
      ],
      "name": "approve",
      "outputs": [],
      "stateMutability": "payable",
      "type": "function"
    },
    {
      "inputs": [
        {
          "internalType": "uint256",
          "name": "_zombieId",
          "type": "uint256"
        },
        {
          "internalType": "uint256",
          "name": "_targetId",
          "type": "uint256"
        }
      ],
      "name": "attack",
      "outputs": [],
      "stateMutability": "nonpayable",
      "type": "function"
    },
    {
      "inputs": [
        {
          "internalType": "address",
          "name": "_owner",
          "type": "address"
        }
      ],
      "name": "balanceOf",
      "outputs": [
        {
          "internalType": "uint256",
          "name": "",
          "type": "uint256"
        }
      ],
      "stateMutability": "view",
      "type": "function"
    },
    {
      "inputs": [
        {
          "internalType": "uint256",
          "name": "_zombieId",
          "type": "uint256"
        },
        {
          "internalType": "uint256",
          "name": "_newDna",
          "type": "uint256"
        }
      ],
      "name": "changeDna",
      "outputs": [],
      "stateMutability": "nonpayable",
      "type": "function"
    },
    {
      "inputs": [
        {
          "internalType": "uint256",
          "name": "_zombieId",
          "type": "uint256"
        },
        {
          "internalType": "string",
          "name": "_newName",
          "type": "string"
        }
      ],
      "name": "changeName",
      "outputs": [],
      "stateMutability": "nonpayable",
      "type": "function"
    },
    {
      "inputs": [
        {
          "internalType": "string",
          "name": "_name",
          "type": "string"
        }
      ],
      "name": "createRandomZombie",
      "outputs": [],
      "stateMutability": "nonpayable",
      "type": "function"
    },
    {
      "inputs": [
        {
          "internalType": "address",
          "name": "_owner",
          "type": "address"
        }
      ],
      "name": "getZombiesByOwner",
      "outputs": [
        {
          "internalType": "uint256[]",
          "name": "",
          "type": "uint256[]"
        }
      ],
      "stateMutability": "view",
      "type": "function"
    },
    {
      "inputs": [],
      "name": "isOwner",
      "outputs": [
        {
          "internalType": "bool",
          "name": "",
          "type": "bool"
        }
      ],
      "stateMutability": "view",
      "type": "function"
    },
    {
      "inputs": [
        {
          "internalType": "uint256",
          "name": "_zombieId",
          "type": "uint256"
        }
      ],
      "name": "levelUp",
      "outputs": [],
      "stateMutability": "payable",
      "type": "function"
    },
    {
      "inputs": [],
      "name": "owner",
      "outputs": [
        {
          "internalType": "address",
          "name": "",
          "type": "address"
        }
      ],
      "stateMutability": "view",
      "type": "function"
    },
    {
      "inputs": [
        {
          "internalType": "uint256",
          "name": "_tokenId",
          "type": "uint256"
        }
      ],
      "name": "ownerOf",
      "outputs": [
        {
          "internalType": "address",
          "name": "",
          "type": "address"
        }
      ],
      "stateMutability": "view",
      "type": "function"
    },
    {
      "inputs": [],
      "name": "renounceOwnership",
      "outputs": [],
      "stateMutability": "nonpayable",
      "type": "function"
    },
    {
      "inputs": [
        {
          "internalType": "uint256",
          "name": "_fee",
          "type": "uint256"
        }
      ],
      "name": "setLevelUpFee",
      "outputs": [],
      "stateMutability": "nonpayable",
      "type": "function"
    },
    {
      "inputs": [
        {
          "internalType": "address",
          "name": "_from",
          "type": "address"
        },
        {
          "internalType": "address",
          "name": "_to",
          "type": "address"
        },
        {
          "internalType": "uint256",
          "name": "_tokenId",
          "type": "uint256"
        }
      ],
      "name": "transferFrom",
      "outputs": [],
      "stateMutability": "payable",
      "type": "function"
    },
    {
      "inputs": [
        {
          "internalType": "address",
          "name": "newOwner",
          "type": "address"
        }
      ],
      "name": "transferOwnership",
      "outputs": [],
      "stateMutability": "nonpayable",
      "type": "function"
    },
    {
      "inputs": [],
      "name": "withdraw",
      "outputs": [],
      "stateMutability": "nonpayable",
      "type": "function"
    },
    {
      "inputs": [
        {
          "internalType": "uint256",
          "name": "",
          "type": "uint256"
        }
      ],
      "name": "zombieToOwner",
      "outputs": [
        {
          "internalType": "address",
          "name": "",
          "type": "address"
        }
      ],
      "stateMutability": "view",
      "type": "function"
    },
    {
      "inputs": [
        {
          "internalType": "uint256",
          "name": "",
          "type": "uint256"
        }
      ],
      "name": "zombies",
      "outputs": [
        {
          "internalType": "string",
          "name": "name",
          "type": "string"
        },
        {
          "internalType": "uint256",
          "name": "dna",
          "type": "uint256"
        },
        {
          "internalType": "uint32",
          "name": "level",
          "type": "uint32"
        },
        {
          "internalType": "uint32",
          "name": "readyTime",
          "type": "uint32"
        },
        {
          "internalType": "uint16",
          "name": "winCount",
          "type": "uint16"
        },
        {
          "internalType": "uint16",
          "name": "lossCount",
          "type": "uint16"
        }
      ],
      "stateMutability": "view",
      "type": "function"
    }
  ],
  "bytecode": "0x60806040526010600155600154600a6200001a919062000163565b6002556201518060035566038d7ea4c68000600755600060085560466009553480156200004657600080fd5b50336000806101000a81548173ffffffffffffffffffffffffffffffffffffffff021916908373ffffffffffffffffffffffffffffffffffffffff16021790555060008054906101000a900473ffffffffffffffffffffffffffffffffffffffff1673ffffffffffffffffffffffffffffffffffffffff16600073ffffffffffffffffffffffffffffffffffffffff167f8be0079c531659141344cd1fd0a4f28419497f9722a3daafe3b4186f6b6457e060405160405180910390a3620002e6565b6000808291508390505b60018511156200015a57808604811115620001325762000131620002aa565b5b6001851615620001425780820291505b80810290506200015285620002d9565b945062000112565b94509492505050565b60006200017082620002a0565b91506200017d83620002a0565b9250620001ac7fffffffffffffffffffffffffffffffffffffffffffffffffffffffffffffffff8484620001b4565b905092915050565b600082620001c6576001905062000299565b81620001d6576000905062000299565b8160018114620001ef5760028114620001fa5762000230565b600191505062000299565b60ff8411156200020f576200020e620002aa565b5b8360020a915084821115620002295762000228620002aa565b5b5062000299565b5060208310610133831016604e8410600b84101617156200026a5782820a905083811115620002645762000263620002aa565b5b62000299565b62000279848484600162000108565b92509050818404811115620002935762000292620002aa565b5b81810290505b9392505050565b6000819050919050565b7f4e487b7100000000000000000000000000000000000000000000000000000000600052601160045260246000fd5b60008160011c9050919050565b61237580620002f66000396000f3fe6080604052600436106101095760003560e01c806370a08231116100955780638f32d59b116100645780638f32d59b14610343578063c39cbef11461036e578063ccf670f814610397578063e1fa7638146103c0578063f2fde38b146103e957610109565b806370a082311461029b578063715018a6146102d85780637bff0a01146102ef5780638da5cb5b1461031857610109565b80633ccfd60b116100dc5780633ccfd60b146101a45780634412e104146101bb578063528b7b8f146101f85780635faf2880146102355780636352211e1461025e57610109565b8063095ea7b31461010e5780630ce90ec21461012a5780632052465e1461014657806323b872dd14610188575b600080fd5b610128600480360381019061012391906119b8565b610412565b005b610144600480360381019061013f9190611a41565b610530565b005b34801561015257600080fd5b5061016d60048036038101906101689190611a41565b6105a5565b60405161017f96959493929190611d5a565b60405180910390f35b6101a2600480360381019061019d9190611965565b6106b5565b005b3480156101b057600080fd5b506101b9610799565b005b3480156101c757600080fd5b506101e260048036038101906101dd9190611938565b610800565b6040516101ef9190611d1d565b60405180910390f35b34801561020457600080fd5b5061021f600480360381019061021a9190611a41565b610953565b60405161022c9190611d02565b60405180910390f35b34801561024157600080fd5b5061025c60048036038101906102579190611ace565b610986565b005b34801561026a57600080fd5b5061028560048036038101906102809190611a41565b610a6e565b6040516102929190611d02565b60405180910390f35b3480156102a757600080fd5b506102c260048036038101906102bd9190611938565b610aab565b6040516102cf9190611dc2565b60405180910390f35b3480156102e457600080fd5b506102ed610af4565b005b3480156102fb57600080fd5b50610316600480360381019061031191906119f8565b610bc3565b005b34801561032457600080fd5b5061032d610c2a565b60405161033a9190611d02565b60405180910390f35b34801561034f57600080fd5b50610358610c53565b6040516103659190611d3f565b60405180910390f35b34801561037a57600080fd5b5061039560048036038101906103909190611a6e565b610caa565b005b3480156103a357600080fd5b506103be60048036038101906103b99190611a41565b610d9e565b005b3480156103cc57600080fd5b506103e760048036038101906103e29190611ace565b610db9565b005b3480156103f557600080fd5b50610410600480360381019061040b9190611938565b61101a565b005b806005600082815260200190815260200160002060009054906101000a900473ffffffffffffffffffffffffffffffffffffffff1673ffffffffffffffffffffffffffffffffffffffff163373ffffffffffffffffffffffffffffffffffffffff161461047e57600080fd5b82600a600084815260200190815260200160002060006101000a81548173ffffffffffffffffffffffffffffffffffffffff021916908373ffffffffffffffffffffffffffffffffffffffff160217905550818373ffffffffffffffffffffffffffffffffffffffff163373ffffffffffffffffffffffffffffffffffffffff167f8c5be1e5ebec7d5bd14f71427d1e84f3dd0314c0f7b2291e5b200ac8c7c3b92560405160405180910390a4505050565b600754341461053e57600080fd5b600481815481106105525761055161224e565b5b9060005260206000209060030201600201600081819054906101000a900463ffffffff168092919061058390612135565b91906101000a81548163ffffffff021916908363ffffffff1602179055505050565b600481815481106105b557600080fd5b90600052602060002090600302016000915090508060000180546105d89061205e565b80601f01602080910402602001604051908101604052809291908181526020018280546106049061205e565b80156106515780601f1061062657610100808354040283529160200191610651565b820191906000526020600020905b81548152906001019060200180831161063457829003601f168201915b5050505050908060010154908060020160009054906101000a900463ffffffff16908060020160049054906101000a900463ffffffff16908060020160089054906101000a900461ffff169080600201600a9054906101000a900461ffff16905086565b3373ffffffffffffffffffffffffffffffffffffffff166005600083815260200190815260200160002060009054906101000a900473ffffffffffffffffffffffffffffffffffffffff1673ffffffffffffffffffffffffffffffffffffffff16148061078057503373ffffffffffffffffffffffffffffffffffffffff16600a600083815260200190815260200160002060009054906101000a900473ffffffffffffffffffffffffffffffffffffffff1673ffffffffffffffffffffffffffffffffffffffff16145b61078957600080fd5b610794838383611037565b505050565b6107a1610c53565b6107aa57600080fd5b60006107b4610c2a565b90508073ffffffffffffffffffffffffffffffffffffffff166108fc479081150290604051600060405180830381858888f193505050501580156107fc573d6000803e3d6000fd5b5050565b60606000600660008473ffffffffffffffffffffffffffffffffffffffff1673ffffffffffffffffffffffffffffffffffffffff1681526020019081526020016000205467ffffffffffffffff81111561085d5761085c61227d565b5b60405190808252806020026020018201604052801561088b5781602001602082028036833780820191505090505b5090506000805b600480549050811015610948578473ffffffffffffffffffffffffffffffffffffffff166005600083815260200190815260200160002060009054906101000a900473ffffffffffffffffffffffffffffffffffffffff1673ffffffffffffffffffffffffffffffffffffffff161415610935578083838151811061091a5761091961224e565b5b6020026020010181815250508180610931906120ec565b9250505b8080610940906120ec565b915050610892565b508192505050919050565b60056020528060005260406000206000915054906101000a900473ffffffffffffffffffffffffffffffffffffffff1681565b601482816004828154811061099e5761099d61224e565b5b906000526020600020906003020160020160009054906101000a900463ffffffff1663ffffffff1610156109d157600080fd5b836005600082815260200190815260200160002060009054906101000a900473ffffffffffffffffffffffffffffffffffffffff1673ffffffffffffffffffffffffffffffffffffffff163373ffffffffffffffffffffffffffffffffffffffff1614610a3d57600080fd5b8360048681548110610a5257610a5161224e565b5b9060005260206000209060030201600101819055505050505050565b60006005600083815260200190815260200160002060009054906101000a900473ffffffffffffffffffffffffffffffffffffffff169050919050565b6000600660008373ffffffffffffffffffffffffffffffffffffffff1673ffffffffffffffffffffffffffffffffffffffff168152602001908152602001600020549050919050565b610afc610c53565b610b0557600080fd5b600073ffffffffffffffffffffffffffffffffffffffff1660008054906101000a900473ffffffffffffffffffffffffffffffffffffffff1673ffffffffffffffffffffffffffffffffffffffff167f8be0079c531659141344cd1fd0a4f28419497f9722a3daafe3b4186f6b6457e060405160405180910390a360008060006101000a81548173ffffffffffffffffffffffffffffffffffffffff021916908373ffffffffffffffffffffffffffffffffffffffff160217905550565b6000600660003373ffffffffffffffffffffffffffffffffffffffff1673ffffffffffffffffffffffffffffffffffffffff1681526020019081526020016000205414610c0f57600080fd5b6000610c1a82611193565b9050610c2682826111d8565b5050565b60008060009054906101000a900473ffffffffffffffffffffffffffffffffffffffff16905090565b60008060009054906101000a900473ffffffffffffffffffffffffffffffffffffffff1673ffffffffffffffffffffffffffffffffffffffff163373ffffffffffffffffffffffffffffffffffffffff1614905090565b6002838160048281548110610cc257610cc161224e565b5b906000526020600020906003020160020160009054906101000a900463ffffffff1663ffffffff161015610cf557600080fd5b846005600082815260200190815260200160002060009054906101000a900473ffffffffffffffffffffffffffffffffffffffff1673ffffffffffffffffffffffffffffffffffffffff163373ffffffffffffffffffffffffffffffffffffffff1614610d6157600080fd5b848460048881548110610d7757610d7661224e565b5b90600052602060002090600302016000019190610d9592919061171f565b50505050505050565b610da6610c53565b610daf57600080fd5b8060078190555050565b816005600082815260200190815260200160002060009054906101000a900473ffffffffffffffffffffffffffffffffffffffff1673ffffffffffffffffffffffffffffffffffffffff163373ffffffffffffffffffffffffffffffffffffffff1614610e2557600080fd5b600060048481548110610e3b57610e3a61224e565b5b90600052602060002090600302019050600060048481548110610e6157610e6061224e565b5b906000526020600020906003020190506000610e7d606461140e565b90506009548111610f8e5782600201600881819054906101000a900461ffff1680929190610eaa906120c1565b91906101000a81548161ffff021916908361ffff1602179055505082600201600081819054906101000a900463ffffffff1680929190610ee990612135565b91906101000a81548163ffffffff021916908363ffffffff1602179055505081600201600a81819054906101000a900461ffff1680929190610f2a906120c1565b91906101000a81548161ffff021916908361ffff16021790555050610f898683600101546040518060400160405280600681526020017f7a6f6d626965000000000000000000000000000000000000000000000000000081525061146a565b611012565b82600201600a81819054906101000a900461ffff1680929190610fb0906120c1565b91906101000a81548161ffff021916908361ffff1602179055505081600201600881819054906101000a900461ffff1680929190610fed906120c1565b91906101000a81548161ffff021916908361ffff16021790555050611011836115f5565b5b505050505050565b611022610c53565b61102b57600080fd5b61103481611628565b50565b600660008373ffffffffffffffffffffffffffffffffffffffff1673ffffffffffffffffffffffffffffffffffffffff1681526020019081526020016000206000815480929190611087906120ec565b9190505550600660003373ffffffffffffffffffffffffffffffffffffffff1673ffffffffffffffffffffffffffffffffffffffff16815260200190815260200160002060008154809291906110dc90612034565b9190505550816005600083815260200190815260200160002060006101000a81548173ffffffffffffffffffffffffffffffffffffffff021916908373ffffffffffffffffffffffffffffffffffffffff160217905550808273ffffffffffffffffffffffffffffffffffffffff168473ffffffffffffffffffffffffffffffffffffffff167fddf252ad1be2c89b69c2b068fc378daa952ba7f163c4a11628f55a4df523b3ef60405160405180910390a4505050565b600080826040516020016111a79190611c99565b6040516020818303038152906040528051906020012060001c9050600254816111d09190612190565b915050919050565b60046040518060c00160405280848152602001838152602001600163ffffffff1681526020016003544261120c9190611ed1565b63ffffffff168152602001600061ffff168152602001600061ffff16815250908060018154018082558091505060019003906000526020600020906003020160009091909190915060008201518160000190805190602001906112709291906117a5565b506020820151816001015560408201518160020160006101000a81548163ffffffff021916908363ffffffff16021790555060608201518160020160046101000a81548163ffffffff021916908363ffffffff16021790555060808201518160020160086101000a81548161ffff021916908361ffff16021790555060a082015181600201600a6101000a81548161ffff021916908361ffff1602179055505050600060016004805490506113259190611f58565b9050336005600083815260200190815260200160002060006101000a81548173ffffffffffffffffffffffffffffffffffffffff021916908373ffffffffffffffffffffffffffffffffffffffff160217905550600660003373ffffffffffffffffffffffffffffffffffffffff1673ffffffffffffffffffffffffffffffffffffffff16815260200190815260200160002060008154809291906113c9906120ec565b91905055507f88f026aacbbecc90c18411df4b1185fd8d9be2470f1962f192bf84a27d0704b781848460405161140193929190611ddd565b60405180910390a1505050565b600060086000815480929190611423906120ec565b919050555081423360085460405160200161144093929190611cc5565b6040516020818303038152906040528051906020012060001c6114639190612190565b9050919050565b826005600082815260200190815260200160002060009054906101000a900473ffffffffffffffffffffffffffffffffffffffff1673ffffffffffffffffffffffffffffffffffffffff163373ffffffffffffffffffffffffffffffffffffffff16146114d657600080fd5b6000600485815481106114ec576114eb61224e565b5b906000526020600020906003020190506002548461150a9190612190565b9350600060028583600101546115209190611ed1565b61152a9190611f27565b905060405160200161153b90611cb0565b60405160208183030381529060405280519060200120846040516020016115629190611c99565b6040516020818303038152906040528051906020012014156115a557606360648261158d9190612190565b826115989190611f58565b6115a29190611ed1565b90505b6115e46040518060400160405280600681526020017f4e6f4e616d650000000000000000000000000000000000000000000000000000815250826111d8565b6115ed826115f5565b505050505050565b600354426116039190611ed1565b8160020160046101000a81548163ffffffff021916908363ffffffff16021790555050565b600073ffffffffffffffffffffffffffffffffffffffff168173ffffffffffffffffffffffffffffffffffffffff16141561166257600080fd5b8073ffffffffffffffffffffffffffffffffffffffff1660008054906101000a900473ffffffffffffffffffffffffffffffffffffffff1673ffffffffffffffffffffffffffffffffffffffff167f8be0079c531659141344cd1fd0a4f28419497f9722a3daafe3b4186f6b6457e060405160405180910390a3806000806101000a81548173ffffffffffffffffffffffffffffffffffffffff021916908373ffffffffffffffffffffffffffffffffffffffff16021790555050565b82805461172b9061205e565b90600052602060002090601f01602090048101928261174d5760008555611794565b82601f1061176657803560ff1916838001178555611794565b82800160010185558215611794579182015b82811115611793578235825591602001919060010190611778565b5b5090506117a1919061182b565b5090565b8280546117b19061205e565b90600052602060002090601f0160209004810192826117d3576000855561181a565b82601f106117ec57805160ff191683800117855561181a565b8280016001018555821561181a579182015b828111156118195782518255916020019190600101906117fe565b5b509050611827919061182b565b5090565b5b8082111561184457600081600090555060010161182c565b5090565b600061185b61185684611e40565b611e1b565b905082815260208101848484011115611877576118766122bb565b5b611882848285611ff2565b509392505050565b60008135905061189981612311565b92915050565b60008083601f8401126118b5576118b46122b1565b5b8235905067ffffffffffffffff8111156118d2576118d16122ac565b5b6020830191508360018202830111156118ee576118ed6122b6565b5b9250929050565b600082601f83011261190a576119096122b1565b5b813561191a848260208601611848565b91505092915050565b60008135905061193281612328565b92915050565b60006020828403121561194e5761194d6122c5565b5b600061195c8482850161188a565b91505092915050565b60008060006060848603121561197e5761197d6122c5565b5b600061198c8682870161188a565b935050602061199d8682870161188a565b92505060406119ae86828701611923565b9150509250925092565b600080604083850312156119cf576119ce6122c5565b5b60006119dd8582860161188a565b92505060206119ee85828601611923565b9150509250929050565b600060208284031215611a0e57611a0d6122c5565b5b600082013567ffffffffffffffff811115611a2c57611a2b6122c0565b5b611a38848285016118f5565b91505092915050565b600060208284031215611a5757611a566122c5565b5b6000611a6584828501611923565b91505092915050565b600080600060408486031215611a8757611a866122c5565b5b6000611a9586828701611923565b935050602084013567ffffffffffffffff811115611ab657611ab56122c0565b5b611ac28682870161189f565b92509250509250925092565b60008060408385031215611ae557611ae46122c5565b5b6000611af385828601611923565b9250506020611b0485828601611923565b9150509250929050565b6000611b1a8383611c55565b60208301905092915050565b611b2f81611f8c565b82525050565b611b46611b4182611f8c565b612162565b82525050565b6000611b5782611e81565b611b618185611ea4565b9350611b6c83611e71565b8060005b83811015611b9d578151611b848882611b0e565b9750611b8f83611e97565b925050600181019050611b70565b5085935050505092915050565b611bb381611f9e565b82525050565b6000611bc482611e8c565b611bce8185611eb5565b9350611bde818560208601612001565b611be7816122ca565b840191505092915050565b6000611bfd82611e8c565b611c078185611ec6565b9350611c17818560208601612001565b80840191505092915050565b6000611c30600583611ec6565b9150611c3b826122e8565b600582019050919050565b611c4f81611faa565b82525050565b611c5e81611fd8565b82525050565b611c6d81611fd8565b82525050565b611c84611c7f82611fd8565b612186565b82525050565b611c9381611fe2565b82525050565b6000611ca58284611bf2565b915081905092915050565b6000611cbb82611c23565b9150819050919050565b6000611cd18286611c73565b602082019150611ce18285611b35565b601482019150611cf18284611c73565b602082019150819050949350505050565b6000602082019050611d176000830184611b26565b92915050565b60006020820190508181036000830152611d378184611b4c565b905092915050565b6000602082019050611d546000830184611baa565b92915050565b600060c0820190508181036000830152611d748189611bb9565b9050611d836020830188611c64565b611d906040830187611c8a565b611d9d6060830186611c8a565b611daa6080830185611c46565b611db760a0830184611c46565b979650505050505050565b6000602082019050611dd76000830184611c64565b92915050565b6000606082019050611df26000830186611c64565b8181036020830152611e048185611bb9565b9050611e136040830184611c64565b949350505050565b6000611e25611e36565b9050611e318282612090565b919050565b6000604051905090565b600067ffffffffffffffff821115611e5b57611e5a61227d565b5b611e64826122ca565b9050602081019050919050565b6000819050602082019050919050565b600081519050919050565b600081519050919050565b6000602082019050919050565b600082825260208201905092915050565b600082825260208201905092915050565b600081905092915050565b6000611edc82611fd8565b9150611ee783611fd8565b9250827fffffffffffffffffffffffffffffffffffffffffffffffffffffffffffffffff03821115611f1c57611f1b6121c1565b5b828201905092915050565b6000611f3282611fd8565b9150611f3d83611fd8565b925082611f4d57611f4c6121f0565b5b828204905092915050565b6000611f6382611fd8565b9150611f6e83611fd8565b925082821015611f8157611f806121c1565b5b828203905092915050565b6000611f9782611fb8565b9050919050565b60008115159050919050565b600061ffff82169050919050565b600073ffffffffffffffffffffffffffffffffffffffff82169050919050565b6000819050919050565b600063ffffffff82169050919050565b82818337600083830152505050565b60005b8381101561201f578082015181840152602081019050612004565b8381111561202e576000848401525b50505050565b600061203f82611fd8565b91506000821415612053576120526121c1565b5b600182039050919050565b6000600282049050600182168061207657607f821691505b6020821081141561208a5761208961221f565b5b50919050565b612099826122ca565b810181811067ffffffffffffffff821117156120b8576120b761227d565b5b80604052505050565b60006120cc82611faa565b915061ffff8214156120e1576120e06121c1565b5b600182019050919050565b60006120f782611fd8565b91507fffffffffffffffffffffffffffffffffffffffffffffffffffffffffffffffff82141561212a576121296121c1565b5b600182019050919050565b600061214082611fe2565b915063ffffffff821415612157576121566121c1565b5b600182019050919050565b600061216d82612174565b9050919050565b600061217f826122db565b9050919050565b6000819050919050565b600061219b82611fd8565b91506121a683611fd8565b9250826121b6576121b56121f0565b5b828206905092915050565b7f4e487b7100000000000000000000000000000000000000000000000000000000600052601160045260246000fd5b7f4e487b7100000000000000000000000000000000000000000000000000000000600052601260045260246000fd5b7f4e487b7100000000000000000000000000000000000000000000000000000000600052602260045260246000fd5b7f4e487b7100000000000000000000000000000000000000000000000000000000600052603260045260246000fd5b7f4e487b7100000000000000000000000000000000000000000000000000000000600052604160045260246000fd5b600080fd5b600080fd5b600080fd5b600080fd5b600080fd5b600080fd5b6000601f19601f8301169050919050565b60008160601b9050919050565b7f6b69747479000000000000000000000000000000000000000000000000000000600082015250565b61231a81611f8c565b811461232557600080fd5b50565b61233181611fd8565b811461233c57600080fd5b5056fea2646970667358221220fb08bdc0a03a444c57f4a287be5e843dfbcb46a7dd2b0400b32a47c7a94cc26164736f6c63430008060033",
  "immutableReferences": {},
  "source": "// SPDX-License-Identifier: MIT\npragma solidity >=0.4.22 <0.9.0;\n\nimport \"./zombieownership.sol\";\n\ncontract CryptoZombies is ZombieOwnership\n    {\n\n    }",
  "sourcePath": "/Users/sandrarawat/cryptozombie-lesson1/contracts/CryptoZombies.sol",
  "compiler": {
    "name": "solc",
    "version": "0.8.6+commit.11564f7e.Emscripten.clang"
  },
  "schemaVersion": "3.4.2",
  "updatedAt": "2021-08-02T08:24:39.747Z",
  "devdoc": {
    "kind": "dev",
    "methods": {
      "isOwner()": {
        "returns": {
          "_0": "true if `msg.sender` is the owner of the contract."
        }
      },
      "owner()": {
        "returns": {
          "_0": "the address of the owner."
        }
      },
      "renounceOwnership()": {
        "details": "Allows the current owner to relinquish control of the contract."
      },
      "transferOwnership(address)": {
        "details": "Allows the current owner to transfer control of the contract to a newOwner.",
        "params": {
          "newOwner": "The address to transfer ownership to."
        }
      }
    },
    "version": 1
  },
  "userdoc": {
    "kind": "user",
    "methods": {
      "renounceOwnership()": {
        "notice": "Renouncing to ownership will leave the contract without an owner. It will not be possible to call the functions with the `onlyOwner` modifier anymore."
      }
    },
    "version": 1
  }
}