{
  "contractName": "ZombieHelper",
  "abi": [
    {
      "anonymous": false,
      "inputs": [
        {
          "indexed": false,
          "internalType": "uint256",
          "name": "zombieId",
          "type": "uint256"
        },
        {
          "indexed": false,
          "internalType": "string",
          "name": "name",
          "type": "string"
        },
        {
          "indexed": false,
          "internalType": "uint256",
          "name": "dna",
          "type": "uint256"
        }
      ],
      "name": "NewZombie",
      "type": "event"
    },
    {
      "anonymous": false,
      "inputs": [
        {
          "indexed": true,
          "internalType": "address",
          "name": "previousOwner",
          "type": "address"
        },
        {
          "indexed": true,
          "internalType": "address",
          "name": "newOwner",
          "type": "address"
        }
      ],
      "name": "OwnershipTransferred",
      "type": "event"
    },
    {
      "inputs": [
        {
          "internalType": "string",
          "name": "_name",
          "type": "string"
        }
      ],
      "name": "createRandomZombie",
      "outputs": [],
      "stateMutability": "nonpayable",
      "type": "function"
    },
    {
      "inputs": [],
      "name": "isOwner",
      "outputs": [
        {
          "internalType": "bool",
          "name": "",
          "type": "bool"
        }
      ],
      "stateMutability": "view",
      "type": "function"
    },
    {
      "inputs": [],
      "name": "owner",
      "outputs": [
        {
          "internalType": "address",
          "name": "",
          "type": "address"
        }
      ],
      "stateMutability": "view",
      "type": "function"
    },
    {
      "inputs": [],
      "name": "renounceOwnership",
      "outputs": [],
      "stateMutability": "nonpayable",
      "type": "function"
    },
    {
      "inputs": [
        {
          "internalType": "address",
          "name": "newOwner",
          "type": "address"
        }
      ],
      "name": "transferOwnership",
      "outputs": [],
      "stateMutability": "nonpayable",
      "type": "function"
    },
    {
      "inputs": [
        {
          "internalType": "uint256",
          "name": "",
          "type": "uint256"
        }
      ],
      "name": "zombieToOwner",
      "outputs": [
        {
          "internalType": "address",
          "name": "",
          "type": "address"
        }
      ],
      "stateMutability": "view",
      "type": "function"
    },
    {
      "inputs": [
        {
          "internalType": "uint256",
          "name": "",
          "type": "uint256"
        }
      ],
      "name": "zombies",
      "outputs": [
        {
          "internalType": "string",
          "name": "name",
          "type": "string"
        },
        {
          "internalType": "uint256",
          "name": "dna",
          "type": "uint256"
        },
        {
          "internalType": "uint32",
          "name": "level",
          "type": "uint32"
        },
        {
          "internalType": "uint32",
          "name": "readyTime",
          "type": "uint32"
        },
        {
          "internalType": "uint16",
          "name": "winCount",
          "type": "uint16"
        },
        {
          "internalType": "uint16",
          "name": "lossCount",
          "type": "uint16"
        }
      ],
      "stateMutability": "view",
      "type": "function"
    },
    {
      "inputs": [],
      "name": "withdraw",
      "outputs": [],
      "stateMutability": "nonpayable",
      "type": "function"
    },
    {
      "inputs": [
        {
          "internalType": "uint256",
          "name": "_fee",
          "type": "uint256"
        }
      ],
      "name": "setLevelUpFee",
      "outputs": [],
      "stateMutability": "nonpayable",
      "type": "function"
    },
    {
      "inputs": [
        {
          "internalType": "uint256",
          "name": "_zombieId",
          "type": "uint256"
        }
      ],
      "name": "levelUp",
      "outputs": [],
      "stateMutability": "payable",
      "type": "function"
    },
    {
      "inputs": [
        {
          "internalType": "uint256",
          "name": "_zombieId",
          "type": "uint256"
        },
        {
          "internalType": "string",
          "name": "_newName",
          "type": "string"
        }
      ],
      "name": "changeName",
      "outputs": [],
      "stateMutability": "nonpayable",
      "type": "function"
    },
    {
      "inputs": [
        {
          "internalType": "uint256",
          "name": "_zombieId",
          "type": "uint256"
        },
        {
          "internalType": "uint256",
          "name": "_newDna",
          "type": "uint256"
        }
      ],
      "name": "changeDna",
      "outputs": [],
      "stateMutability": "nonpayable",
      "type": "function"
    },
    {
      "inputs": [
        {
          "internalType": "address",
          "name": "_owner",
          "type": "address"
        }
      ],
      "name": "getZombiesByOwner",
      "outputs": [
        {
          "internalType": "uint256[]",
          "name": "",
          "type": "uint256[]"
        }
      ],
      "stateMutability": "view",
      "type": "function"
    }
  ],
  "bytecode": "0x60806040526010600155600154600a6200001a919062000159565b6002556201518060035566038d7ea4c680006007553480156200003c57600080fd5b50336000806101000a81548173ffffffffffffffffffffffffffffffffffffffff021916908373ffffffffffffffffffffffffffffffffffffffff16021790555060008054906101000a900473ffffffffffffffffffffffffffffffffffffffff1673ffffffffffffffffffffffffffffffffffffffff16600073ffffffffffffffffffffffffffffffffffffffff167f8be0079c531659141344cd1fd0a4f28419497f9722a3daafe3b4186f6b6457e060405160405180910390a3620002dc565b6000808291508390505b60018511156200015057808604811115620001285762000127620002a0565b5b6001851615620001385780820291505b80810290506200014885620002cf565b945062000108565b94509492505050565b6000620001668262000296565b9150620001738362000296565b9250620001a27fffffffffffffffffffffffffffffffffffffffffffffffffffffffffffffffff8484620001aa565b905092915050565b600082620001bc57600190506200028f565b81620001cc57600090506200028f565b8160018114620001e55760028114620001f05762000226565b60019150506200028f565b60ff841115620002055762000204620002a0565b5b8360020a9150848211156200021f576200021e620002a0565b5b506200028f565b5060208310610133831016604e8410600b8410161715620002605782820a9050838111156200025a5762000259620002a0565b5b6200028f565b6200026f8484846001620000fe565b92509050818404811115620002895762000288620002a0565b5b81810290505b9392505050565b6000819050919050565b7f4e487b7100000000000000000000000000000000000000000000000000000000600052601160045260246000fd5b60008160011c9050919050565b6117b980620002ec6000396000f3fe6080604052600436106100c25760003560e01c8063715018a61161007f5780638f32d59b116100595780638f32d59b1461024a578063c39cbef114610275578063ccf670f81461029e578063f2fde38b146102c7576100c2565b8063715018a6146101df5780637bff0a01146101f65780638da5cb5b1461021f576100c2565b80630ce90ec2146100c75780632052465e146100e35780633ccfd60b146101255780634412e1041461013c578063528b7b8f146101795780635faf2880146101b6575b600080fd5b6100e160048036038101906100dc919061102d565b6102f0565b005b3480156100ef57600080fd5b5061010a6004803603810190610105919061102d565b610365565b60405161011c969594939291906112a3565b60405180910390f35b34801561013157600080fd5b5061013a610475565b005b34801561014857600080fd5b50610163600480360381019061015e9190610fb7565b6104dc565b6040516101709190611266565b60405180910390f35b34801561018557600080fd5b506101a0600480360381019061019b919061102d565b61062f565b6040516101ad919061124b565b60405180910390f35b3480156101c257600080fd5b506101dd60048036038101906101d891906110ba565b610662565b005b3480156101eb57600080fd5b506101f461074a565b005b34801561020257600080fd5b5061021d60048036038101906102189190610fe4565b610819565b005b34801561022b57600080fd5b50610234610880565b604051610241919061124b565b60405180910390f35b34801561025657600080fd5b5061025f6108a9565b60405161026c9190611288565b60405180910390f35b34801561028157600080fd5b5061029c6004803603810190610297919061105a565b610900565b005b3480156102aa57600080fd5b506102c560048036038101906102c0919061102d565b6109f4565b005b3480156102d357600080fd5b506102ee60048036038101906102e99190610fb7565b610a0f565b005b60075434146102fe57600080fd5b60048181548110610312576103116116c8565b5b9060005260206000209060030201600201600081819054906101000a900463ffffffff1680929190610343906115dd565b91906101000a81548163ffffffff021916908363ffffffff1602179055505050565b6004818154811061037557600080fd5b906000526020600020906003020160009150905080600001805461039890611531565b80601f01602080910402602001604051908101604052809291908181526020018280546103c490611531565b80156104115780601f106103e657610100808354040283529160200191610411565b820191906000526020600020905b8154815290600101906020018083116103f457829003601f168201915b5050505050908060010154908060020160009054906101000a900463ffffffff16908060020160049054906101000a900463ffffffff16908060020160089054906101000a900461ffff169080600201600a9054906101000a900461ffff16905086565b61047d6108a9565b61048657600080fd5b6000610490610880565b90508073ffffffffffffffffffffffffffffffffffffffff166108fc479081150290604051600060405180830381858888f193505050501580156104d8573d6000803e3d6000fd5b5050565b60606000600660008473ffffffffffffffffffffffffffffffffffffffff1673ffffffffffffffffffffffffffffffffffffffff1681526020019081526020016000205467ffffffffffffffff811115610539576105386116f7565b5b6040519080825280602002602001820160405280156105675781602001602082028036833780820191505090505b5090506000805b600480549050811015610624578473ffffffffffffffffffffffffffffffffffffffff166005600083815260200190815260200160002060009054906101000a900473ffffffffffffffffffffffffffffffffffffffff1673ffffffffffffffffffffffffffffffffffffffff16141561061157808383815181106105f6576105f56116c8565b5b602002602001018181525050818061060d90611594565b9250505b808061061c90611594565b91505061056e565b508192505050919050565b60056020528060005260406000206000915054906101000a900473ffffffffffffffffffffffffffffffffffffffff1681565b601482816004828154811061067a576106796116c8565b5b906000526020600020906003020160020160009054906101000a900463ffffffff1663ffffffff1610156106ad57600080fd5b836005600082815260200190815260200160002060009054906101000a900473ffffffffffffffffffffffffffffffffffffffff1673ffffffffffffffffffffffffffffffffffffffff163373ffffffffffffffffffffffffffffffffffffffff161461071957600080fd5b836004868154811061072e5761072d6116c8565b5b9060005260206000209060030201600101819055505050505050565b6107526108a9565b61075b57600080fd5b600073ffffffffffffffffffffffffffffffffffffffff1660008054906101000a900473ffffffffffffffffffffffffffffffffffffffff1673ffffffffffffffffffffffffffffffffffffffff167f8be0079c531659141344cd1fd0a4f28419497f9722a3daafe3b4186f6b6457e060405160405180910390a360008060006101000a81548173ffffffffffffffffffffffffffffffffffffffff021916908373ffffffffffffffffffffffffffffffffffffffff160217905550565b6000600660003373ffffffffffffffffffffffffffffffffffffffff1673ffffffffffffffffffffffffffffffffffffffff168152602001908152602001600020541461086557600080fd5b600061087082610a2c565b905061087c8282610a71565b5050565b60008060009054906101000a900473ffffffffffffffffffffffffffffffffffffffff16905090565b60008060009054906101000a900473ffffffffffffffffffffffffffffffffffffffff1673ffffffffffffffffffffffffffffffffffffffff163373ffffffffffffffffffffffffffffffffffffffff1614905090565b6002838160048281548110610918576109176116c8565b5b906000526020600020906003020160020160009054906101000a900463ffffffff1663ffffffff16101561094b57600080fd5b846005600082815260200190815260200160002060009054906101000a900473ffffffffffffffffffffffffffffffffffffffff1673ffffffffffffffffffffffffffffffffffffffff163373ffffffffffffffffffffffffffffffffffffffff16146109b757600080fd5b8484600488815481106109cd576109cc6116c8565b5b906000526020600020906003020160000191906109eb929190610d9e565b50505050505050565b6109fc6108a9565b610a0557600080fd5b8060078190555050565b610a176108a9565b610a2057600080fd5b610a2981610ca7565b50565b60008082604051602001610a409190611234565b6040516020818303038152906040528051906020012060001c905060025481610a69919061160a565b915050919050565b60046040518060c00160405280848152602001838152602001600163ffffffff16815260200160035442610aa591906113ff565b63ffffffff168152602001600061ffff168152602001600061ffff1681525090806001815401808255809150506001900390600052602060002090600302016000909190919091506000820151816000019080519060200190610b09929190610e24565b506020820151816001015560408201518160020160006101000a81548163ffffffff021916908363ffffffff16021790555060608201518160020160046101000a81548163ffffffff021916908363ffffffff16021790555060808201518160020160086101000a81548161ffff021916908361ffff16021790555060a082015181600201600a6101000a81548161ffff021916908361ffff160217905550505060006001600480549050610bbe9190611455565b9050336005600083815260200190815260200160002060006101000a81548173ffffffffffffffffffffffffffffffffffffffff021916908373ffffffffffffffffffffffffffffffffffffffff160217905550600660003373ffffffffffffffffffffffffffffffffffffffff1673ffffffffffffffffffffffffffffffffffffffff1681526020019081526020016000206000815480929190610c6290611594565b91905055507f88f026aacbbecc90c18411df4b1185fd8d9be2470f1962f192bf84a27d0704b7818484604051610c9a9392919061130b565b60405180910390a1505050565b600073ffffffffffffffffffffffffffffffffffffffff168173ffffffffffffffffffffffffffffffffffffffff161415610ce157600080fd5b8073ffffffffffffffffffffffffffffffffffffffff1660008054906101000a900473ffffffffffffffffffffffffffffffffffffffff1673ffffffffffffffffffffffffffffffffffffffff167f8be0079c531659141344cd1fd0a4f28419497f9722a3daafe3b4186f6b6457e060405160405180910390a3806000806101000a81548173ffffffffffffffffffffffffffffffffffffffff021916908373ffffffffffffffffffffffffffffffffffffffff16021790555050565b828054610daa90611531565b90600052602060002090601f016020900481019282610dcc5760008555610e13565b82601f10610de557803560ff1916838001178555610e13565b82800160010185558215610e13579182015b82811115610e12578235825591602001919060010190610df7565b5b509050610e209190610eaa565b5090565b828054610e3090611531565b90600052602060002090601f016020900481019282610e525760008555610e99565b82601f10610e6b57805160ff1916838001178555610e99565b82800160010185558215610e99579182015b82811115610e98578251825591602001919060010190610e7d565b5b509050610ea69190610eaa565b5090565b5b80821115610ec3576000816000905550600101610eab565b5090565b6000610eda610ed58461136e565b611349565b905082815260208101848484011115610ef657610ef5611735565b5b610f018482856114ef565b509392505050565b600081359050610f1881611755565b92915050565b60008083601f840112610f3457610f3361172b565b5b8235905067ffffffffffffffff811115610f5157610f50611726565b5b602083019150836001820283011115610f6d57610f6c611730565b5b9250929050565b600082601f830112610f8957610f8861172b565b5b8135610f99848260208601610ec7565b91505092915050565b600081359050610fb18161176c565b92915050565b600060208284031215610fcd57610fcc61173f565b5b6000610fdb84828501610f09565b91505092915050565b600060208284031215610ffa57610ff961173f565b5b600082013567ffffffffffffffff8111156110185761101761173a565b5b61102484828501610f74565b91505092915050565b6000602082840312156110435761104261173f565b5b600061105184828501610fa2565b91505092915050565b6000806000604084860312156110735761107261173f565b5b600061108186828701610fa2565b935050602084013567ffffffffffffffff8111156110a2576110a161173a565b5b6110ae86828701610f1e565b92509250509250925092565b600080604083850312156110d1576110d061173f565b5b60006110df85828601610fa2565b92505060206110f085828601610fa2565b9150509250929050565b60006111068383611207565b60208301905092915050565b61111b81611489565b82525050565b600061112c826113af565b61113681856113d2565b93506111418361139f565b8060005b8381101561117257815161115988826110fa565b9750611164836113c5565b925050600181019050611145565b5085935050505092915050565b6111888161149b565b82525050565b6000611199826113ba565b6111a381856113e3565b93506111b38185602086016114fe565b6111bc81611744565b840191505092915050565b60006111d2826113ba565b6111dc81856113f4565b93506111ec8185602086016114fe565b80840191505092915050565b611201816114a7565b82525050565b611210816114d5565b82525050565b61121f816114d5565b82525050565b61122e816114df565b82525050565b600061124082846111c7565b915081905092915050565b60006020820190506112606000830184611112565b92915050565b600060208201905081810360008301526112808184611121565b905092915050565b600060208201905061129d600083018461117f565b92915050565b600060c08201905081810360008301526112bd818961118e565b90506112cc6020830188611216565b6112d96040830187611225565b6112e66060830186611225565b6112f360808301856111f8565b61130060a08301846111f8565b979650505050505050565b60006060820190506113206000830186611216565b8181036020830152611332818561118e565b90506113416040830184611216565b949350505050565b6000611353611364565b905061135f8282611563565b919050565b6000604051905090565b600067ffffffffffffffff821115611389576113886116f7565b5b61139282611744565b9050602081019050919050565b6000819050602082019050919050565b600081519050919050565b600081519050919050565b6000602082019050919050565b600082825260208201905092915050565b600082825260208201905092915050565b600081905092915050565b600061140a826114d5565b9150611415836114d5565b9250827fffffffffffffffffffffffffffffffffffffffffffffffffffffffffffffffff0382111561144a5761144961163b565b5b828201905092915050565b6000611460826114d5565b915061146b836114d5565b92508282101561147e5761147d61163b565b5b828203905092915050565b6000611494826114b5565b9050919050565b60008115159050919050565b600061ffff82169050919050565b600073ffffffffffffffffffffffffffffffffffffffff82169050919050565b6000819050919050565b600063ffffffff82169050919050565b82818337600083830152505050565b60005b8381101561151c578082015181840152602081019050611501565b8381111561152b576000848401525b50505050565b6000600282049050600182168061154957607f821691505b6020821081141561155d5761155c611699565b5b50919050565b61156c82611744565b810181811067ffffffffffffffff8211171561158b5761158a6116f7565b5b80604052505050565b600061159f826114d5565b91507fffffffffffffffffffffffffffffffffffffffffffffffffffffffffffffffff8214156115d2576115d161163b565b5b600182019050919050565b60006115e8826114df565b915063ffffffff8214156115ff576115fe61163b565b5b600182019050919050565b6000611615826114d5565b9150611620836114d5565b9250826116305761162f61166a565b5b828206905092915050565b7f4e487b7100000000000000000000000000000000000000000000000000000000600052601160045260246000fd5b7f4e487b7100000000000000000000000000000000000000000000000000000000600052601260045260246000fd5b7f4e487b7100000000000000000000000000000000000000000000000000000000600052602260045260246000fd5b7f4e487b7100000000000000000000000000000000000000000000000000000000600052603260045260246000fd5b7f4e487b7100000000000000000000000000000000000000000000000000000000600052604160045260246000fd5b600080fd5b600080fd5b600080fd5b600080fd5b600080fd5b600080fd5b6000601f19601f8301169050919050565b61175e81611489565b811461176957600080fd5b50565b611775816114d5565b811461178057600080fd5b5056fea2646970667358221220b391d027b1a49e915d81a8f09308a0e64c887954a88b53264ab37a484c75283464736f6c63430008060033",
  "immutableReferences": {},
  "source": "\n// SPDX-License-Identifier: UNLICENSED\"\npragma solidity ^0.8.6;\n\nimport \"./zombiefeeding.sol\";\n\ncontract ZombieHelper is ZombieFeeding {\n\n  uint levelUpFee = 0.001 ether;\n\n  modifier aboveLevel(uint _level, uint _zombieId) {\n    require(zombies[_zombieId].level >= _level);\n    _;\n  }\n\n  function withdraw() external onlyOwner {\n     address payable _owner = payable(owner());\n    _owner.transfer(address(this).balance);\n  }\n\n  function setLevelUpFee(uint _fee) external onlyOwner {\n    levelUpFee = _fee;\n  }\n\n  function levelUp(uint _zombieId) external payable {\n    require(msg.value == levelUpFee);\n    zombies[_zombieId].level++;\n  }\n\n  function changeName(uint _zombieId, string calldata _newName) external aboveLevel(2, _zombieId) onlyOwnerOf(_zombieId) {\n    zombies[_zombieId].name = _newName;\n  }\n\n  function changeDna(uint _zombieId, uint _newDna) external aboveLevel(20, _zombieId) onlyOwnerOf(_zombieId) {\n    zombies[_zombieId].dna = _newDna;\n  }\n\n  function getZombiesByOwner(address _owner) external view returns(uint[] memory) {\n    uint[] memory result = new uint[](ownerZombieCount[_owner]);\n    uint counter = 0;\n    for (uint i = 0; i < zombies.length; i++) {\n      if (zombieToOwner[i] == _owner) {\n        result[counter] = i;\n        counter++;\n      }\n    }\n    return result;\n  }\n\n}\n",
  "sourcePath": "/Users/sandrarawat/cryptozombie-lesson1/contracts/zombiehelper.sol",
  "compiler": {
    "name": "solc",
    "version": "0.8.6+commit.11564f7e.Emscripten.clang"
  },
  "schemaVersion": "3.4.2",
  "updatedAt": "2021-07-31T18:15:19.192Z",
  "devdoc": {
    "kind": "dev",
    "methods": {
      "isOwner()": {
        "returns": {
          "_0": "true if `msg.sender` is the owner of the contract."
        }
      },
      "owner()": {
        "returns": {
          "_0": "the address of the owner."
        }
      },
      "renounceOwnership()": {
        "details": "Allows the current owner to relinquish control of the contract."
      },
      "transferOwnership(address)": {
        "details": "Allows the current owner to transfer control of the contract to a newOwner.",
        "params": {
          "newOwner": "The address to transfer ownership to."
        }
      }
    },
    "version": 1
  },
  "userdoc": {
    "kind": "user",
    "methods": {
      "renounceOwnership()": {
        "notice": "Renouncing to ownership will leave the contract without an owner. It will not be possible to call the functions with the `onlyOwner` modifier anymore."
      }
    },
    "version": 1
  }
}