{
  "contractName": "ZombieAttack",
  "abi": [
    {
      "anonymous": false,
      "inputs": [
        {
          "indexed": false,
          "internalType": "uint256",
          "name": "zombieId",
          "type": "uint256"
        },
        {
          "indexed": false,
          "internalType": "string",
          "name": "name",
          "type": "string"
        },
        {
          "indexed": false,
          "internalType": "uint256",
          "name": "dna",
          "type": "uint256"
        }
      ],
      "name": "NewZombie",
      "type": "event"
    },
    {
      "anonymous": false,
      "inputs": [
        {
          "indexed": true,
          "internalType": "address",
          "name": "previousOwner",
          "type": "address"
        },
        {
          "indexed": true,
          "internalType": "address",
          "name": "newOwner",
          "type": "address"
        }
      ],
      "name": "OwnershipTransferred",
      "type": "event"
    },
    {
      "inputs": [
        {
          "internalType": "uint256",
          "name": "_zombieId",
          "type": "uint256"
        },
        {
          "internalType": "uint256",
          "name": "_newDna",
          "type": "uint256"
        }
      ],
      "name": "changeDna",
      "outputs": [],
      "stateMutability": "nonpayable",
      "type": "function"
    },
    {
      "inputs": [
        {
          "internalType": "uint256",
          "name": "_zombieId",
          "type": "uint256"
        },
        {
          "internalType": "string",
          "name": "_newName",
          "type": "string"
        }
      ],
      "name": "changeName",
      "outputs": [],
      "stateMutability": "nonpayable",
      "type": "function"
    },
    {
      "inputs": [
        {
          "internalType": "string",
          "name": "_name",
          "type": "string"
        }
      ],
      "name": "createRandomZombie",
      "outputs": [],
      "stateMutability": "nonpayable",
      "type": "function"
    },
    {
      "inputs": [
        {
          "internalType": "address",
          "name": "_owner",
          "type": "address"
        }
      ],
      "name": "getZombiesByOwner",
      "outputs": [
        {
          "internalType": "uint256[]",
          "name": "",
          "type": "uint256[]"
        }
      ],
      "stateMutability": "view",
      "type": "function"
    },
    {
      "inputs": [],
      "name": "isOwner",
      "outputs": [
        {
          "internalType": "bool",
          "name": "",
          "type": "bool"
        }
      ],
      "stateMutability": "view",
      "type": "function"
    },
    {
      "inputs": [
        {
          "internalType": "uint256",
          "name": "_zombieId",
          "type": "uint256"
        }
      ],
      "name": "levelUp",
      "outputs": [],
      "stateMutability": "payable",
      "type": "function"
    },
    {
      "inputs": [],
      "name": "owner",
      "outputs": [
        {
          "internalType": "address",
          "name": "",
          "type": "address"
        }
      ],
      "stateMutability": "view",
      "type": "function"
    },
    {
      "inputs": [],
      "name": "renounceOwnership",
      "outputs": [],
      "stateMutability": "nonpayable",
      "type": "function"
    },
    {
      "inputs": [
        {
          "internalType": "uint256",
          "name": "_fee",
          "type": "uint256"
        }
      ],
      "name": "setLevelUpFee",
      "outputs": [],
      "stateMutability": "nonpayable",
      "type": "function"
    },
    {
      "inputs": [
        {
          "internalType": "address",
          "name": "newOwner",
          "type": "address"
        }
      ],
      "name": "transferOwnership",
      "outputs": [],
      "stateMutability": "nonpayable",
      "type": "function"
    },
    {
      "inputs": [],
      "name": "withdraw",
      "outputs": [],
      "stateMutability": "nonpayable",
      "type": "function"
    },
    {
      "inputs": [
        {
          "internalType": "uint256",
          "name": "",
          "type": "uint256"
        }
      ],
      "name": "zombieToOwner",
      "outputs": [
        {
          "internalType": "address",
          "name": "",
          "type": "address"
        }
      ],
      "stateMutability": "view",
      "type": "function"
    },
    {
      "inputs": [
        {
          "internalType": "uint256",
          "name": "",
          "type": "uint256"
        }
      ],
      "name": "zombies",
      "outputs": [
        {
          "internalType": "string",
          "name": "name",
          "type": "string"
        },
        {
          "internalType": "uint256",
          "name": "dna",
          "type": "uint256"
        },
        {
          "internalType": "uint32",
          "name": "level",
          "type": "uint32"
        },
        {
          "internalType": "uint32",
          "name": "readyTime",
          "type": "uint32"
        },
        {
          "internalType": "uint16",
          "name": "winCount",
          "type": "uint16"
        },
        {
          "internalType": "uint16",
          "name": "lossCount",
          "type": "uint16"
        }
      ],
      "stateMutability": "view",
      "type": "function"
    },
    {
      "inputs": [
        {
          "internalType": "uint256",
          "name": "_zombieId",
          "type": "uint256"
        },
        {
          "internalType": "uint256",
          "name": "_targetId",
          "type": "uint256"
        }
      ],
      "name": "attack",
      "outputs": [],
      "stateMutability": "nonpayable",
      "type": "function"
    }
  ],
  "bytecode": "0x60806040526010600155600154600a6200001a919062000163565b6002556201518060035566038d7ea4c68000600755600060085560466009553480156200004657600080fd5b50336000806101000a81548173ffffffffffffffffffffffffffffffffffffffff021916908373ffffffffffffffffffffffffffffffffffffffff16021790555060008054906101000a900473ffffffffffffffffffffffffffffffffffffffff1673ffffffffffffffffffffffffffffffffffffffff16600073ffffffffffffffffffffffffffffffffffffffff167f8be0079c531659141344cd1fd0a4f28419497f9722a3daafe3b4186f6b6457e060405160405180910390a3620002e6565b6000808291508390505b60018511156200015a57808604811115620001325762000131620002aa565b5b6001851615620001425780820291505b80810290506200015285620002d9565b945062000112565b94509492505050565b60006200017082620002a0565b91506200017d83620002a0565b9250620001ac7fffffffffffffffffffffffffffffffffffffffffffffffffffffffffffffffff8484620001b4565b905092915050565b600082620001c6576001905062000299565b81620001d6576000905062000299565b8160018114620001ef5760028114620001fa5762000230565b600191505062000299565b60ff8411156200020f576200020e620002aa565b5b8360020a915084821115620002295762000228620002aa565b5b5062000299565b5060208310610133831016604e8410600b84101617156200026a5782820a905083811115620002645762000263620002aa565b5b62000299565b62000279848484600162000108565b92509050818404811115620002935762000292620002aa565b5b81810290505b9392505050565b6000819050919050565b7f4e487b7100000000000000000000000000000000000000000000000000000000600052601160045260246000fd5b60008160011c9050919050565b611ddb80620002f66000396000f3fe6080604052600436106100dd5760003560e01c80637bff0a011161007f578063c39cbef111610059578063c39cbef114610290578063ccf670f8146102b9578063e1fa7638146102e2578063f2fde38b1461030b576100dd565b80637bff0a01146102115780638da5cb5b1461023a5780638f32d59b14610265576100dd565b80634412e104116100bb5780634412e10414610157578063528b7b8f146101945780635faf2880146101d1578063715018a6146101fa576100dd565b80630ce90ec2146100e25780632052465e146100fe5780633ccfd60b14610140575b600080fd5b6100fc60048036038101906100f791906114ec565b610334565b005b34801561010a57600080fd5b50610125600480360381019061012091906114ec565b6103a9565b60405161013796959493929190611805565b60405180910390f35b34801561014c57600080fd5b506101556104b9565b005b34801561016357600080fd5b5061017e60048036038101906101799190611476565b610520565b60405161018b91906117c8565b60405180910390f35b3480156101a057600080fd5b506101bb60048036038101906101b691906114ec565b610673565b6040516101c891906117ad565b60405180910390f35b3480156101dd57600080fd5b506101f860048036038101906101f39190611579565b6106a6565b005b34801561020657600080fd5b5061020f61078e565b005b34801561021d57600080fd5b50610238600480360381019061023391906114a3565b61085d565b005b34801561024657600080fd5b5061024f6108c4565b60405161025c91906117ad565b60405180910390f35b34801561027157600080fd5b5061027a6108ed565b60405161028791906117ea565b60405180910390f35b34801561029c57600080fd5b506102b760048036038101906102b29190611519565b610944565b005b3480156102c557600080fd5b506102e060048036038101906102db91906114ec565b610a38565b005b3480156102ee57600080fd5b5061030960048036038101906103049190611579565b610a53565b005b34801561031757600080fd5b50610332600480360381019061032d9190611476565b610cb4565b005b600754341461034257600080fd5b6004818154811061035657610355611cb4565b5b9060005260206000209060030201600201600081819054906101000a900463ffffffff168092919061038790611b9b565b91906101000a81548163ffffffff021916908363ffffffff1602179055505050565b600481815481106103b957600080fd5b90600052602060002090600302016000915090508060000180546103dc90611ac4565b80601f016020809104026020016040519081016040528092919081815260200182805461040890611ac4565b80156104555780601f1061042a57610100808354040283529160200191610455565b820191906000526020600020905b81548152906001019060200180831161043857829003601f168201915b5050505050908060010154908060020160009054906101000a900463ffffffff16908060020160049054906101000a900463ffffffff16908060020160089054906101000a900461ffff169080600201600a9054906101000a900461ffff16905086565b6104c16108ed565b6104ca57600080fd5b60006104d46108c4565b90508073ffffffffffffffffffffffffffffffffffffffff166108fc479081150290604051600060405180830381858888f1935050505015801561051c573d6000803e3d6000fd5b5050565b60606000600660008473ffffffffffffffffffffffffffffffffffffffff1673ffffffffffffffffffffffffffffffffffffffff1681526020019081526020016000205467ffffffffffffffff81111561057d5761057c611ce3565b5b6040519080825280602002602001820160405280156105ab5781602001602082028036833780820191505090505b5090506000805b600480549050811015610668578473ffffffffffffffffffffffffffffffffffffffff166005600083815260200190815260200160002060009054906101000a900473ffffffffffffffffffffffffffffffffffffffff1673ffffffffffffffffffffffffffffffffffffffff161415610655578083838151811061063a57610639611cb4565b5b602002602001018181525050818061065190611b52565b9250505b808061066090611b52565b9150506105b2565b508192505050919050565b60056020528060005260406000206000915054906101000a900473ffffffffffffffffffffffffffffffffffffffff1681565b60148281600482815481106106be576106bd611cb4565b5b906000526020600020906003020160020160009054906101000a900463ffffffff1663ffffffff1610156106f157600080fd5b836005600082815260200190815260200160002060009054906101000a900473ffffffffffffffffffffffffffffffffffffffff1673ffffffffffffffffffffffffffffffffffffffff163373ffffffffffffffffffffffffffffffffffffffff161461075d57600080fd5b836004868154811061077257610771611cb4565b5b9060005260206000209060030201600101819055505050505050565b6107966108ed565b61079f57600080fd5b600073ffffffffffffffffffffffffffffffffffffffff1660008054906101000a900473ffffffffffffffffffffffffffffffffffffffff1673ffffffffffffffffffffffffffffffffffffffff167f8be0079c531659141344cd1fd0a4f28419497f9722a3daafe3b4186f6b6457e060405160405180910390a360008060006101000a81548173ffffffffffffffffffffffffffffffffffffffff021916908373ffffffffffffffffffffffffffffffffffffffff160217905550565b6000600660003373ffffffffffffffffffffffffffffffffffffffff1673ffffffffffffffffffffffffffffffffffffffff16815260200190815260200160002054146108a957600080fd5b60006108b482610cd1565b90506108c08282610d16565b5050565b60008060009054906101000a900473ffffffffffffffffffffffffffffffffffffffff16905090565b60008060009054906101000a900473ffffffffffffffffffffffffffffffffffffffff1673ffffffffffffffffffffffffffffffffffffffff163373ffffffffffffffffffffffffffffffffffffffff1614905090565b600283816004828154811061095c5761095b611cb4565b5b906000526020600020906003020160020160009054906101000a900463ffffffff1663ffffffff16101561098f57600080fd5b846005600082815260200190815260200160002060009054906101000a900473ffffffffffffffffffffffffffffffffffffffff1673ffffffffffffffffffffffffffffffffffffffff163373ffffffffffffffffffffffffffffffffffffffff16146109fb57600080fd5b848460048881548110610a1157610a10611cb4565b5b90600052602060002090600302016000019190610a2f92919061125d565b50505050505050565b610a406108ed565b610a4957600080fd5b8060078190555050565b816005600082815260200190815260200160002060009054906101000a900473ffffffffffffffffffffffffffffffffffffffff1673ffffffffffffffffffffffffffffffffffffffff163373ffffffffffffffffffffffffffffffffffffffff1614610abf57600080fd5b600060048481548110610ad557610ad4611cb4565b5b90600052602060002090600302019050600060048481548110610afb57610afa611cb4565b5b906000526020600020906003020190506000610b176064610f4c565b90506009548111610c285782600201600881819054906101000a900461ffff1680929190610b4490611b27565b91906101000a81548161ffff021916908361ffff1602179055505082600201600081819054906101000a900463ffffffff1680929190610b8390611b9b565b91906101000a81548163ffffffff021916908363ffffffff1602179055505081600201600a81819054906101000a900461ffff1680929190610bc490611b27565b91906101000a81548161ffff021916908361ffff16021790555050610c238683600101546040518060400160405280600681526020017f7a6f6d6269650000000000000000000000000000000000000000000000000000815250610fa8565b610cac565b82600201600a81819054906101000a900461ffff1680929190610c4a90611b27565b91906101000a81548161ffff021916908361ffff1602179055505081600201600881819054906101000a900461ffff1680929190610c8790611b27565b91906101000a81548161ffff021916908361ffff16021790555050610cab83611133565b5b505050505050565b610cbc6108ed565b610cc557600080fd5b610cce81611166565b50565b60008082604051602001610ce59190611744565b6040516020818303038152906040528051906020012060001c905060025481610d0e9190611bf6565b915050919050565b60046040518060c00160405280848152602001838152602001600163ffffffff16815260200160035442610d4a9190611961565b63ffffffff168152602001600061ffff168152602001600061ffff1681525090806001815401808255809150506001900390600052602060002090600302016000909190919091506000820151816000019080519060200190610dae9291906112e3565b506020820151816001015560408201518160020160006101000a81548163ffffffff021916908363ffffffff16021790555060608201518160020160046101000a81548163ffffffff021916908363ffffffff16021790555060808201518160020160086101000a81548161ffff021916908361ffff16021790555060a082015181600201600a6101000a81548161ffff021916908361ffff160217905550505060006001600480549050610e6391906119e8565b9050336005600083815260200190815260200160002060006101000a81548173ffffffffffffffffffffffffffffffffffffffff021916908373ffffffffffffffffffffffffffffffffffffffff160217905550600660003373ffffffffffffffffffffffffffffffffffffffff1673ffffffffffffffffffffffffffffffffffffffff1681526020019081526020016000206000815480929190610f0790611b52565b91905055507f88f026aacbbecc90c18411df4b1185fd8d9be2470f1962f192bf84a27d0704b7818484604051610f3f9392919061186d565b60405180910390a1505050565b600060086000815480929190610f6190611b52565b9190505550814233600854604051602001610f7e93929190611770565b6040516020818303038152906040528051906020012060001c610fa19190611bf6565b9050919050565b826005600082815260200190815260200160002060009054906101000a900473ffffffffffffffffffffffffffffffffffffffff1673ffffffffffffffffffffffffffffffffffffffff163373ffffffffffffffffffffffffffffffffffffffff161461101457600080fd5b60006004858154811061102a57611029611cb4565b5b90600052602060002090600302019050600254846110489190611bf6565b93506000600285836001015461105e9190611961565b61106891906119b7565b90506040516020016110799061175b565b60405160208183030381529060405280519060200120846040516020016110a09190611744565b6040516020818303038152906040528051906020012014156110e35760636064826110cb9190611bf6565b826110d691906119e8565b6110e09190611961565b90505b6111226040518060400160405280600681526020017f4e6f4e616d65000000000000000000000000000000000000000000000000000081525082610d16565b61112b82611133565b505050505050565b600354426111419190611961565b8160020160046101000a81548163ffffffff021916908363ffffffff16021790555050565b600073ffffffffffffffffffffffffffffffffffffffff168173ffffffffffffffffffffffffffffffffffffffff1614156111a057600080fd5b8073ffffffffffffffffffffffffffffffffffffffff1660008054906101000a900473ffffffffffffffffffffffffffffffffffffffff1673ffffffffffffffffffffffffffffffffffffffff167f8be0079c531659141344cd1fd0a4f28419497f9722a3daafe3b4186f6b6457e060405160405180910390a3806000806101000a81548173ffffffffffffffffffffffffffffffffffffffff021916908373ffffffffffffffffffffffffffffffffffffffff16021790555050565b82805461126990611ac4565b90600052602060002090601f01602090048101928261128b57600085556112d2565b82601f106112a457803560ff19168380011785556112d2565b828001600101855582156112d2579182015b828111156112d15782358255916020019190600101906112b6565b5b5090506112df9190611369565b5090565b8280546112ef90611ac4565b90600052602060002090601f0160209004810192826113115760008555611358565b82601f1061132a57805160ff1916838001178555611358565b82800160010185558215611358579182015b8281111561135757825182559160200191906001019061133c565b5b5090506113659190611369565b5090565b5b8082111561138257600081600090555060010161136a565b5090565b6000611399611394846118d0565b6118ab565b9050828152602081018484840111156113b5576113b4611d21565b5b6113c0848285611a82565b509392505050565b6000813590506113d781611d77565b92915050565b60008083601f8401126113f3576113f2611d17565b5b8235905067ffffffffffffffff8111156114105761140f611d12565b5b60208301915083600182028301111561142c5761142b611d1c565b5b9250929050565b600082601f83011261144857611447611d17565b5b8135611458848260208601611386565b91505092915050565b60008135905061147081611d8e565b92915050565b60006020828403121561148c5761148b611d2b565b5b600061149a848285016113c8565b91505092915050565b6000602082840312156114b9576114b8611d2b565b5b600082013567ffffffffffffffff8111156114d7576114d6611d26565b5b6114e384828501611433565b91505092915050565b60006020828403121561150257611501611d2b565b5b600061151084828501611461565b91505092915050565b60008060006040848603121561153257611531611d2b565b5b600061154086828701611461565b935050602084013567ffffffffffffffff81111561156157611560611d26565b5b61156d868287016113dd565b92509250509250925092565b600080604083850312156115905761158f611d2b565b5b600061159e85828601611461565b92505060206115af85828601611461565b9150509250929050565b60006115c58383611700565b60208301905092915050565b6115da81611a1c565b82525050565b6115f16115ec82611a1c565b611bc8565b82525050565b600061160282611911565b61160c8185611934565b935061161783611901565b8060005b8381101561164857815161162f88826115b9565b975061163a83611927565b92505060018101905061161b565b5085935050505092915050565b61165e81611a2e565b82525050565b600061166f8261191c565b6116798185611945565b9350611689818560208601611a91565b61169281611d30565b840191505092915050565b60006116a88261191c565b6116b28185611956565b93506116c2818560208601611a91565b80840191505092915050565b60006116db600583611956565b91506116e682611d4e565b600582019050919050565b6116fa81611a3a565b82525050565b61170981611a68565b82525050565b61171881611a68565b82525050565b61172f61172a82611a68565b611bec565b82525050565b61173e81611a72565b82525050565b6000611750828461169d565b915081905092915050565b6000611766826116ce565b9150819050919050565b600061177c828661171e565b60208201915061178c82856115e0565b60148201915061179c828461171e565b602082019150819050949350505050565b60006020820190506117c260008301846115d1565b92915050565b600060208201905081810360008301526117e281846115f7565b905092915050565b60006020820190506117ff6000830184611655565b92915050565b600060c082019050818103600083015261181f8189611664565b905061182e602083018861170f565b61183b6040830187611735565b6118486060830186611735565b61185560808301856116f1565b61186260a08301846116f1565b979650505050505050565b6000606082019050611882600083018661170f565b81810360208301526118948185611664565b90506118a3604083018461170f565b949350505050565b60006118b56118c6565b90506118c18282611af6565b919050565b6000604051905090565b600067ffffffffffffffff8211156118eb576118ea611ce3565b5b6118f482611d30565b9050602081019050919050565b6000819050602082019050919050565b600081519050919050565b600081519050919050565b6000602082019050919050565b600082825260208201905092915050565b600082825260208201905092915050565b600081905092915050565b600061196c82611a68565b915061197783611a68565b9250827fffffffffffffffffffffffffffffffffffffffffffffffffffffffffffffffff038211156119ac576119ab611c27565b5b828201905092915050565b60006119c282611a68565b91506119cd83611a68565b9250826119dd576119dc611c56565b5b828204905092915050565b60006119f382611a68565b91506119fe83611a68565b925082821015611a1157611a10611c27565b5b828203905092915050565b6000611a2782611a48565b9050919050565b60008115159050919050565b600061ffff82169050919050565b600073ffffffffffffffffffffffffffffffffffffffff82169050919050565b6000819050919050565b600063ffffffff82169050919050565b82818337600083830152505050565b60005b83811015611aaf578082015181840152602081019050611a94565b83811115611abe576000848401525b50505050565b60006002820490506001821680611adc57607f821691505b60208210811415611af057611aef611c85565b5b50919050565b611aff82611d30565b810181811067ffffffffffffffff82111715611b1e57611b1d611ce3565b5b80604052505050565b6000611b3282611a3a565b915061ffff821415611b4757611b46611c27565b5b600182019050919050565b6000611b5d82611a68565b91507fffffffffffffffffffffffffffffffffffffffffffffffffffffffffffffffff821415611b9057611b8f611c27565b5b600182019050919050565b6000611ba682611a72565b915063ffffffff821415611bbd57611bbc611c27565b5b600182019050919050565b6000611bd382611bda565b9050919050565b6000611be582611d41565b9050919050565b6000819050919050565b6000611c0182611a68565b9150611c0c83611a68565b925082611c1c57611c1b611c56565b5b828206905092915050565b7f4e487b7100000000000000000000000000000000000000000000000000000000600052601160045260246000fd5b7f4e487b7100000000000000000000000000000000000000000000000000000000600052601260045260246000fd5b7f4e487b7100000000000000000000000000000000000000000000000000000000600052602260045260246000fd5b7f4e487b7100000000000000000000000000000000000000000000000000000000600052603260045260246000fd5b7f4e487b7100000000000000000000000000000000000000000000000000000000600052604160045260246000fd5b600080fd5b600080fd5b600080fd5b600080fd5b600080fd5b600080fd5b6000601f19601f8301169050919050565b60008160601b9050919050565b7f6b69747479000000000000000000000000000000000000000000000000000000600082015250565b611d8081611a1c565b8114611d8b57600080fd5b50565b611d9781611a68565b8114611da257600080fd5b5056fea26469706673582212205f62d4be70e561736c051a5e8f17c137189e2db5628e050a748a4c87ed38dd7964736f6c63430008060033",
  "immutableReferences": {},
  "source": "\n// SPDX-License-Identifier: UNLICENSED\"\npragma solidity ^0.8.6;\n\nimport \"./zombiehelper.sol\";\n\ncontract ZombieAttack is ZombieHelper {\n  uint randNonce = 0;\n  uint attackVictoryProbability = 70;\n\n  function randMod(uint _modulus) internal returns(uint) {\n        randNonce++;\n        return uint(keccak256(abi.encodePacked(block.timestamp, msg.sender, randNonce))) % _modulus;\n    }\n\n  function attack(uint _zombieId, uint _targetId) external onlyOwnerOf(_zombieId) {\n        Zombie storage myZombie = zombies[_zombieId];\n        Zombie storage enemyZombie = zombies[_targetId];\n        uint rand = randMod(100);\n        if (rand <= attackVictoryProbability) {\n            myZombie.winCount++;\n            myZombie.level++;\n            enemyZombie.lossCount++;\n            feedAndMultiply(_zombieId, enemyZombie.dna, \"zombie\");\n        } else {\n            myZombie.lossCount++;\n            enemyZombie.winCount++;\n            _triggerCooldown(myZombie);\n        }\n    }\n}\n\n",
  "sourcePath": "/Users/sandrarawat/cryptozombie-lesson1/contracts/zombieattack.sol",
  "compiler": {
    "name": "solc",
    "version": "0.8.6+commit.11564f7e.Emscripten.clang"
  },
  "schemaVersion": "3.4.2",
  "updatedAt": "2021-07-31T18:15:19.181Z",
  "devdoc": {
    "kind": "dev",
    "methods": {
      "isOwner()": {
        "returns": {
          "_0": "true if `msg.sender` is the owner of the contract."
        }
      },
      "owner()": {
        "returns": {
          "_0": "the address of the owner."
        }
      },
      "renounceOwnership()": {
        "details": "Allows the current owner to relinquish control of the contract."
      },
      "transferOwnership(address)": {
        "details": "Allows the current owner to transfer control of the contract to a newOwner.",
        "params": {
          "newOwner": "The address to transfer ownership to."
        }
      }
    },
    "version": 1
  },
  "userdoc": {
    "kind": "user",
    "methods": {
      "renounceOwnership()": {
        "notice": "Renouncing to ownership will leave the contract without an owner. It will not be possible to call the functions with the `onlyOwner` modifier anymore."
      }
    },
    "version": 1
  }
}